{
  "_format": "hh-sol-artifact-1",
  "contractName": "CreditSystem",
  "sourceName": "contracts/CreditSystem.sol",
  "abi": [
    {
      "inputs": [],
      "stateMutability": "nonpayable",
      "type": "constructor"
    },
    {
      "anonymous": false,
      "inputs": [
        {
          "indexed": true,
          "internalType": "uint256",
          "name": "loanId",
          "type": "uint256"
        },
        {
          "indexed": true,
          "internalType": "address",
          "name": "borrower",
          "type": "address"
        },
        {
          "indexed": true,
          "internalType": "address",
          "name": "lender",
          "type": "address"
        },
        {
          "indexed": false,
          "internalType": "uint256",
          "name": "amount",
          "type": "uint256"
        }
      ],
      "name": "LoanCreated",
      "type": "event"
    },
    {
      "anonymous": false,
      "inputs": [
        {
          "indexed": true,
          "internalType": "uint256",
          "name": "loanId",
          "type": "uint256"
        },
        {
          "indexed": true,
          "internalType": "address",
          "name": "lender",
          "type": "address"
        }
      ],
      "name": "LoanFunded",
      "type": "event"
    },
    {
      "anonymous": false,
      "inputs": [
        {
          "indexed": true,
          "internalType": "uint256",
          "name": "loanId",
          "type": "uint256"
        },
        {
          "indexed": true,
          "internalType": "address",
          "name": "borrower",
          "type": "address"
        }
      ],
      "name": "LoanRepaid",
      "type": "event"
    },
    {
      "anonymous": false,
      "inputs": [
        {
          "indexed": true,
          "internalType": "address",
          "name": "user",
          "type": "address"
        },
        {
          "indexed": false,
          "internalType": "uint256",
          "name": "newScore",
          "type": "uint256"
        }
      ],
      "name": "ScoreUpdated",
      "type": "event"
    },
    {
      "anonymous": false,
      "inputs": [
        {
          "indexed": true,
          "internalType": "address",
          "name": "user",
          "type": "address"
        },
        {
          "indexed": false,
          "internalType": "uint256",
          "name": "taskId",
          "type": "uint256"
        }
      ],
      "name": "TaskCompleted",
      "type": "event"
    },
    {
      "anonymous": false,
      "inputs": [
        {
          "indexed": true,
          "internalType": "address",
          "name": "user",
          "type": "address"
        }
      ],
      "name": "UserAdded",
      "type": "event"
    },
    {
      "inputs": [],
      "name": "BASIS_POINTS",
      "outputs": [
        {
          "internalType": "uint256",
          "name": "",
          "type": "uint256"
        }
      ],
      "stateMutability": "view",
      "type": "function"
    },
    {
      "inputs": [],
      "name": "BORROWING_POINTS",
      "outputs": [
        {
          "internalType": "uint256",
          "name": "",
          "type": "uint256"
        }
      ],
      "stateMutability": "view",
      "type": "function"
    },
    {
      "inputs": [],
      "name": "LENDING_POINTS",
      "outputs": [
        {
          "internalType": "uint256",
          "name": "",
          "type": "uint256"
        }
      ],
      "stateMutability": "view",
      "type": "function"
    },
    {
      "inputs": [],
      "name": "REPAYMENT_POINTS",
      "outputs": [
        {
          "internalType": "uint256",
          "name": "",
          "type": "uint256"
        }
      ],
      "stateMutability": "view",
      "type": "function"
    },
    {
      "inputs": [
        {
          "internalType": "uint256",
          "name": "loanId",
          "type": "uint256"
        }
      ],
      "name": "calculateLoanInterest",
      "outputs": [
        {
          "internalType": "uint256",
          "name": "",
          "type": "uint256"
        }
      ],
      "stateMutability": "view",
      "type": "function"
    },
    {
      "inputs": [
        {
          "internalType": "uint256",
          "name": "loanId",
          "type": "uint256"
        }
      ],
      "name": "calculateRepaymentAmount",
      "outputs": [
        {
          "internalType": "uint256",
          "name": "",
          "type": "uint256"
        }
      ],
      "stateMutability": "view",
      "type": "function"
    },
    {
      "inputs": [
        {
          "internalType": "uint256",
          "name": "loanId",
          "type": "uint256"
        }
      ],
      "name": "cancelLoan",
      "outputs": [],
      "stateMutability": "nonpayable",
      "type": "function"
    },
    {
      "inputs": [
        {
          "internalType": "uint256",
          "name": "_taskId",
          "type": "uint256"
        }
      ],
      "name": "completeTask",
      "outputs": [],
      "stateMutability": "nonpayable",
      "type": "function"
    },
    {
      "inputs": [
        {
          "internalType": "address",
          "name": "",
          "type": "address"
        },
        {
          "internalType": "uint256",
          "name": "",
          "type": "uint256"
        }
      ],
      "name": "completedTasks",
      "outputs": [
        {
          "internalType": "bool",
          "name": "",
          "type": "bool"
        }
      ],
      "stateMutability": "view",
      "type": "function"
    },
    {
      "inputs": [
        {
          "internalType": "string",
          "name": "description",
          "type": "string"
        },
        {
          "internalType": "uint256",
          "name": "points",
          "type": "uint256"
        }
      ],
      "name": "createTask",
      "outputs": [],
      "stateMutability": "nonpayable",
      "type": "function"
    },
    {
      "inputs": [
        {
          "internalType": "address",
          "name": "",
          "type": "address"
        }
      ],
      "name": "creditScores",
      "outputs": [
        {
          "internalType": "uint256",
          "name": "",
          "type": "uint256"
        }
      ],
      "stateMutability": "view",
      "type": "function"
    },
    {
      "inputs": [
        {
          "internalType": "uint256",
          "name": "loanId",
          "type": "uint256"
        }
      ],
      "name": "fundLoan",
      "outputs": [],
      "stateMutability": "payable",
      "type": "function"
    },
    {
      "inputs": [],
      "name": "getActiveLoanRequests",
      "outputs": [
        {
          "internalType": "uint256[]",
          "name": "",
          "type": "uint256[]"
        }
      ],
      "stateMutability": "view",
      "type": "function"
    },
    {
      "inputs": [
        {
          "internalType": "address",
          "name": "_user",
          "type": "address"
        }
      ],
      "name": "getCreditData",
      "outputs": [
        {
          "internalType": "uint256",
          "name": "score",
          "type": "uint256"
        },
        {
          "internalType": "uint256",
          "name": "completedCount",
          "type": "uint256"
        },
        {
          "internalType": "uint256",
          "name": "totalTasks",
          "type": "uint256"
        }
      ],
      "stateMutability": "view",
      "type": "function"
    },
    {
      "inputs": [
        {
          "internalType": "uint256",
          "name": "loanId",
          "type": "uint256"
        }
      ],
      "name": "getLoanDetails",
      "outputs": [
        {
          "internalType": "address",
          "name": "borrower",
          "type": "address"
        },
        {
          "internalType": "address",
          "name": "lender",
          "type": "address"
        },
        {
          "internalType": "uint256",
          "name": "amount",
          "type": "uint256"
        },
        {
          "internalType": "uint256",
          "name": "dueDate",
          "type": "uint256"
        },
        {
          "internalType": "uint256",
          "name": "interestRate",
          "type": "uint256"
        },
        {
          "internalType": "bool",
          "name": "repaid",
          "type": "bool"
        },
        {
          "internalType": "bool",
          "name": "active",
          "type": "bool"
        }
      ],
      "stateMutability": "view",
      "type": "function"
    },
    {
      "inputs": [],
      "name": "getUserCount",
      "outputs": [
        {
          "internalType": "uint256",
          "name": "",
          "type": "uint256"
        }
      ],
      "stateMutability": "view",
      "type": "function"
    },
    {
      "inputs": [
        {
          "internalType": "address",
          "name": "user",
          "type": "address"
        }
      ],
      "name": "getUserLendings",
      "outputs": [
        {
          "internalType": "uint256[]",
          "name": "",
          "type": "uint256[]"
        }
      ],
      "stateMutability": "view",
      "type": "function"
    },
    {
      "inputs": [
        {
          "internalType": "address",
          "name": "user",
          "type": "address"
        }
      ],
      "name": "getUserLoans",
      "outputs": [
        {
          "internalType": "uint256[]",
          "name": "",
          "type": "uint256[]"
        }
      ],
      "stateMutability": "view",
      "type": "function"
    },
    {
      "inputs": [
        {
          "internalType": "address",
          "name": "",
          "type": "address"
        }
      ],
      "name": "hasScore",
      "outputs": [
        {
          "internalType": "bool",
          "name": "",
          "type": "bool"
        }
      ],
      "stateMutability": "view",
      "type": "function"
    },
    {
      "inputs": [
        {
          "internalType": "address",
          "name": "user",
          "type": "address"
        },
        {
          "internalType": "uint256",
          "name": "taskId",
          "type": "uint256"
        }
      ],
      "name": "isTaskCompleted",
      "outputs": [
        {
          "internalType": "bool",
          "name": "",
          "type": "bool"
        }
      ],
      "stateMutability": "view",
      "type": "function"
    },
    {
      "inputs": [],
      "name": "loanCount",
      "outputs": [
        {
          "internalType": "uint256",
          "name": "",
          "type": "uint256"
        }
      ],
      "stateMutability": "view",
      "type": "function"
    },
    {
      "inputs": [
        {
          "internalType": "uint256",
          "name": "",
          "type": "uint256"
        }
      ],
      "name": "loans",
      "outputs": [
        {
          "internalType": "uint256",
          "name": "id",
          "type": "uint256"
        },
        {
          "internalType": "address",
          "name": "borrower",
          "type": "address"
        },
        {
          "internalType": "address",
          "name": "lender",
          "type": "address"
        },
        {
          "internalType": "uint256",
          "name": "amount",
          "type": "uint256"
        },
        {
          "internalType": "uint256",
          "name": "dueDate",
          "type": "uint256"
        },
        {
          "internalType": "uint256",
          "name": "interestRate",
          "type": "uint256"
        },
        {
          "internalType": "bool",
          "name": "repaid",
          "type": "bool"
        },
        {
          "internalType": "bool",
          "name": "active",
          "type": "bool"
        }
      ],
      "stateMutability": "view",
      "type": "function"
    },
    {
      "inputs": [],
      "name": "owner",
      "outputs": [
        {
          "internalType": "address",
          "name": "",
          "type": "address"
        }
      ],
      "stateMutability": "view",
      "type": "function"
    },
    {
      "inputs": [
        {
          "internalType": "uint256",
          "name": "loanId",
          "type": "uint256"
        }
      ],
      "name": "repayLoan",
      "outputs": [],
      "stateMutability": "payable",
      "type": "function"
    },
    {
      "inputs": [
        {
          "internalType": "uint256",
          "name": "amount",
          "type": "uint256"
        },
        {
          "internalType": "uint256",
          "name": "durationDays",
          "type": "uint256"
        },
        {
          "internalType": "uint256",
          "name": "interestRate",
          "type": "uint256"
        }
      ],
      "name": "requestLoan",
      "outputs": [
        {
          "internalType": "uint256",
          "name": "",
          "type": "uint256"
        }
      ],
      "stateMutability": "nonpayable",
      "type": "function"
    },
    {
      "inputs": [],
      "name": "taskCount",
      "outputs": [
        {
          "internalType": "uint256",
          "name": "",
          "type": "uint256"
        }
      ],
      "stateMutability": "view",
      "type": "function"
    },
    {
      "inputs": [
        {
          "internalType": "uint256",
          "name": "",
          "type": "uint256"
        }
      ],
      "name": "tasks",
      "outputs": [
        {
          "internalType": "uint256",
          "name": "id",
          "type": "uint256"
        },
        {
          "internalType": "string",
          "name": "description",
          "type": "string"
        },
        {
          "internalType": "uint256",
          "name": "points",
          "type": "uint256"
        },
        {
          "internalType": "bool",
          "name": "isActive",
          "type": "bool"
        }
      ],
      "stateMutability": "view",
      "type": "function"
    },
    {
      "inputs": [
        {
          "internalType": "address",
          "name": "",
          "type": "address"
        },
        {
          "internalType": "uint256",
          "name": "",
          "type": "uint256"
        }
      ],
      "name": "userLendings",
      "outputs": [
        {
          "internalType": "uint256",
          "name": "",
          "type": "uint256"
        }
      ],
      "stateMutability": "view",
      "type": "function"
    },
    {
      "inputs": [
        {
          "internalType": "address",
          "name": "",
          "type": "address"
        },
        {
          "internalType": "uint256",
          "name": "",
          "type": "uint256"
        }
      ],
      "name": "userLoans",
      "outputs": [
        {
          "internalType": "uint256",
          "name": "",
          "type": "uint256"
        }
      ],
      "stateMutability": "view",
      "type": "function"
    },
    {
      "inputs": [
        {
          "internalType": "uint256",
          "name": "",
          "type": "uint256"
        }
      ],
      "name": "users",
      "outputs": [
        {
          "internalType": "address",
          "name": "",
          "type": "address"
        }
      ],
      "stateMutability": "view",
      "type": "function"
    }
  ],
  "bytecode": "0x608060405234801561001057600080fd5b50336000806101000a81548173ffffffffffffffffffffffffffffffffffffffff021916908373ffffffffffffffffffffffffffffffffffffffff16021790555061005f61006460201b60201c565b610663565b61008d604051806060016040528060228152602001613e5f60229139603261011b60201b60201c565b6100d36040518060400160405280601a81526020017f4465706f73697420302e312045544820746f20736176696e6773000000000000815250606461011b60201b60201c565b6101196040518060400160405280601a81526020017f436f6d706c657465206c6561726e696e67206d6f64756c652031000000000000815250601e61011b60201b60201c565b565b60008054906101000a900473ffffffffffffffffffffffffffffffffffffffff1673ffffffffffffffffffffffffffffffffffffffff163373ffffffffffffffffffffffffffffffffffffffff16146101a9576040517f08c379a00000000000000000000000000000000000000000000000000000000081526004016101a0906102aa565b60405180910390fd5b600160008154809291906101bc90610303565b9190505550604051806080016040528060015481526020018381526020018281526020016001151581525060046000600154815260200190815260200160002060008201518160000155602082015181600101908161021b9190610591565b506040820151816002015560608201518160030160006101000a81548160ff0219169083151502179055509050505050565b600082825260208201905092915050565b7f4e6f7420617574686f72697a6564000000000000000000000000000000000000600082015250565b6000610294600e8361024d565b915061029f8261025e565b602082019050919050565b600060208201905081810360008301526102c381610287565b9050919050565b7f4e487b7100000000000000000000000000000000000000000000000000000000600052601160045260246000fd5b6000819050919050565b600061030e826102f9565b91507fffffffffffffffffffffffffffffffffffffffffffffffffffffffffffffffff82036103405761033f6102ca565b5b600182019050919050565b600081519050919050565b7f4e487b7100000000000000000000000000000000000000000000000000000000600052604160045260246000fd5b7f4e487b7100000000000000000000000000000000000000000000000000000000600052602260045260246000fd5b600060028204905060018216806103cc57607f821691505b6020821081036103df576103de610385565b5b50919050565b60008190508160005260206000209050919050565b60006020601f8301049050919050565b600082821b905092915050565b6000600883026104477fffffffffffffffffffffffffffffffffffffffffffffffffffffffffffffffff8261040a565b610451868361040a565b95508019841693508086168417925050509392505050565b6000819050919050565b600061048e610489610484846102f9565b610469565b6102f9565b9050919050565b6000819050919050565b6104a883610473565b6104bc6104b482610495565b848454610417565b825550505050565b600090565b6104d16104c4565b6104dc81848461049f565b505050565b5b81811015610500576104f56000826104c9565b6001810190506104e2565b5050565b601f82111561054557610516816103e5565b61051f846103fa565b8101602085101561052e578190505b61054261053a856103fa565b8301826104e1565b50505b505050565b600082821c905092915050565b60006105686000198460080261054a565b1980831691505092915050565b60006105818383610557565b9150826002028217905092915050565b61059a8261034b565b67ffffffffffffffff8111156105b3576105b2610356565b5b6105bd82546103b4565b6105c8828285610504565b600060209050601f8311600181146105fb57600084156105e9578287015190505b6105f38582610575565b86555061065b565b601f198416610609866103e5565b60005b828110156106315784890151825560018201915060208501945060208101905061060c565b8683101561064e578489015161064a601f891682610557565b8355505b6001600288020188555050505b505050505050565b6137ed806106726000396000f3fe6080604052600436106101cd5760003560e01c80638da5cb5b116100f7578063ce63094d11610095578063e1e2955811610064578063e1e2955814610715578063e1ec3c681461073e578063e1f1c4a714610782578063edadbbfe146107ad576101cd565b8063ce63094d14610633578063d8bad5bd1461065e578063dc529c9a1461069b578063df813b6b146106d8576101cd565b8063b1197239116100d1578063b119723914610577578063b5cb15f7146105b4578063b6cb58a5146105df578063bdbfa3de1461060a576101cd565b80638da5cb5b146105055780639772d7ee14610530578063ab7b1c891461055b576101cd565b8063578e42951161016f57806375b83c5a1161013e57806375b83c5a1461044157806380bb72731461046c578063846b909a146104a95780638d977672146104c5576101cd565b8063578e42951461034557806359157a271461038257806364d32aee146103c157806366877b8d146103fe576101cd565b80630b2237ed116101ab5780630b2237ed146102635780631a6a8bb6146102a0578063365b98b2146102dd57806345fdde8f1461031a576101cd565b806302bf321f146101d257806304fe2b341461020f57806309c84fab14610238575b600080fd5b3480156101de57600080fd5b506101f960048036038101906101f4919061267f565b6107ea565b6040516102069190612774565b60405180910390f35b34801561021b57600080fd5b5061023660048036038101906102319190612908565b610881565b005b34801561024457600080fd5b5061024d6109b3565b60405161025a9190612973565b60405180910390f35b34801561026f57600080fd5b5061028a6004803603810190610285919061298e565b6109b8565b60405161029791906129e9565b60405180910390f35b3480156102ac57600080fd5b506102c760048036038101906102c2919061267f565b6109e7565b6040516102d49190612774565b60405180910390f35b3480156102e957600080fd5b5061030460048036038101906102ff9190612a04565b610a7e565b6040516103119190612a40565b60405180910390f35b34801561032657600080fd5b5061032f610abd565b60405161033c9190612973565b60405180910390f35b34801561035157600080fd5b5061036c6004803603810190610367919061267f565b610ac2565b60405161037991906129e9565b60405180910390f35b34801561038e57600080fd5b506103a960048036038101906103a4919061267f565b610ae2565b6040516103b893929190612a5b565b60405180910390f35b3480156103cd57600080fd5b506103e860048036038101906103e3919061298e565b610bcb565b6040516103f591906129e9565b60405180910390f35b34801561040a57600080fd5b5061042560048036038101906104209190612a04565b610c33565b6040516104389796959493929190612a92565b60405180910390f35b34801561044d57600080fd5b50610456610d32565b6040516104639190612973565b60405180910390f35b34801561047857600080fd5b50610493600480360381019061048e919061267f565b610d37565b6040516104a09190612973565b60405180910390f35b6104c360048036038101906104be9190612a04565b610d4f565b005b3480156104d157600080fd5b506104ec60048036038101906104e79190612a04565b6111b2565b6040516104fc9493929190612b80565b60405180910390f35b34801561051157600080fd5b5061051a611277565b6040516105279190612a40565b60405180910390f35b34801561053c57600080fd5b5061054561129b565b6040516105529190612774565b60405180910390f35b61057560048036038101906105709190612a04565b6114a9565b005b34801561058357600080fd5b5061059e60048036038101906105999190612a04565b611931565b6040516105ab9190612973565b60405180910390f35b3480156105c057600080fd5b506105c96119ce565b6040516105d69190612973565b60405180910390f35b3480156105eb57600080fd5b506105f46119db565b6040516106019190612973565b60405180910390f35b34801561061657600080fd5b50610631600480360381019061062c9190612a04565b6119e1565b005b34801561063f57600080fd5b50610648611bd6565b6040516106559190612973565b60405180910390f35b34801561066a57600080fd5b506106856004803603810190610680919061298e565b611bdc565b6040516106929190612973565b60405180910390f35b3480156106a757600080fd5b506106c260048036038101906106bd919061298e565b611c0d565b6040516106cf9190612973565b60405180910390f35b3480156106e457600080fd5b506106ff60048036038101906106fa9190612a04565b611c3e565b60405161070c9190612973565b60405180910390f35b34801561072157600080fd5b5061073c60048036038101906107379190612a04565b611cc6565b005b34801561074a57600080fd5b5061076560048036038101906107609190612a04565b611fc8565b604051610779989796959493929190612bcc565b60405180910390f35b34801561078e57600080fd5b5061079761206a565b6040516107a49190612973565b60405180910390f35b3480156107b957600080fd5b506107d460048036038101906107cf9190612c4a565b612070565b6040516107e19190612973565b60405180910390f35b6060600760008373ffffffffffffffffffffffffffffffffffffffff1673ffffffffffffffffffffffffffffffffffffffff16815260200190815260200160002080548060200260200160405190810160405280929190818152602001828054801561087557602002820191906000526020600020905b815481526020019060010190808311610861575b50505050509050919050565b60008054906101000a900473ffffffffffffffffffffffffffffffffffffffff1673ffffffffffffffffffffffffffffffffffffffff163373ffffffffffffffffffffffffffffffffffffffff161461090f576040517f08c379a000000000000000000000000000000000000000000000000000000000815260040161090690612ce9565b60405180910390fd5b6001600081548092919061092290612d38565b919050555060405180608001604052806001548152602001838152602001828152602001600115158152506004600060015481526020019081526020016000206000820151816000015560208201518160010190816109819190612f8c565b506040820151816002015560608201518160030160006101000a81548160ff0219169083151502179055509050505050565b606481565b60056020528160005260406000206020528060005260406000206000915091509054906101000a900460ff1681565b6060600860008373ffffffffffffffffffffffffffffffffffffffff1673ffffffffffffffffffffffffffffffffffffffff168152602001908152602001600020805480602002602001604051908101604052809291908181526020018280548015610a7257602002820191906000526020600020905b815481526020019060010190808311610a5e575b50505050509050919050565b60098181548110610a8e57600080fd5b906000526020600020016000915054906101000a900473ffffffffffffffffffffffffffffffffffffffff1681565b603281565b600a6020528060005260406000206000915054906101000a900460ff1681565b6000806000600360008573ffffffffffffffffffffffffffffffffffffffff1673ffffffffffffffffffffffffffffffffffffffff16815260200190815260200160002054925060015490506000600190505b6001548111610bc357600560008673ffffffffffffffffffffffffffffffffffffffff1673ffffffffffffffffffffffffffffffffffffffff168152602001908152602001600020600082815260200190815260200160002060009054906101000a900460ff1615610bb0578280610bac90612d38565b9350505b8080610bbb90612d38565b915050610b35565b509193909250565b6000600560008473ffffffffffffffffffffffffffffffffffffffff1673ffffffffffffffffffffffffffffffffffffffff168152602001908152602001600020600083815260200190815260200160002060009054906101000a900460ff16905092915050565b600080600080600080600080600660008a815260200190815260200160002090506000816000015411610c9b576040517f08c379a0000000000000000000000000000000000000000000000000000000008152600401610c92906130aa565b60405180910390fd5b8060010160009054906101000a900473ffffffffffffffffffffffffffffffffffffffff168160020160009054906101000a900473ffffffffffffffffffffffffffffffffffffffff168260030154836004015484600501548560060160009054906101000a900460ff168660060160019054906101000a900460ff16975097509750975097509750975050919395979092949650565b601e81565b60036020528060005260406000206000915090505481565b60006006600083815260200190815260200160002090506000816000015411610dad576040517f08c379a0000000000000000000000000000000000000000000000000000000008152600401610da4906130aa565b60405180910390fd5b8060060160019054906101000a900460ff16610dfe576040517f08c379a0000000000000000000000000000000000000000000000000000000008152600401610df590613116565b60405180910390fd5b600073ffffffffffffffffffffffffffffffffffffffff168160020160009054906101000a900473ffffffffffffffffffffffffffffffffffffffff1673ffffffffffffffffffffffffffffffffffffffff1614610e91576040517f08c379a0000000000000000000000000000000000000000000000000000000008152600401610e8890613182565b60405180910390fd5b8060010160009054906101000a900473ffffffffffffffffffffffffffffffffffffffff1673ffffffffffffffffffffffffffffffffffffffff163373ffffffffffffffffffffffffffffffffffffffff1603610f23576040517f08c379a0000000000000000000000000000000000000000000000000000000008152600401610f1a906131ee565b60405180910390fd5b80600301543414610f69576040517f08c379a0000000000000000000000000000000000000000000000000000000008152600401610f609061325a565b60405180910390fd5b338160020160006101000a81548173ffffffffffffffffffffffffffffffffffffffff021916908373ffffffffffffffffffffffffffffffffffffffff160217905550600860003373ffffffffffffffffffffffffffffffffffffffff1673ffffffffffffffffffffffffffffffffffffffff1681526020019081526020016000208290806001815401808255809150506001900390600052602060002001600090919091909150558060010160009054906101000a900473ffffffffffffffffffffffffffffffffffffffff1673ffffffffffffffffffffffffffffffffffffffff166108fc349081150290604051600060405180830381858888f1935050505015801561107c573d6000803e3d6000fd5b506032600360003373ffffffffffffffffffffffffffffffffffffffff1673ffffffffffffffffffffffffffffffffffffffff16815260200190815260200160002060008282546110cd919061327a565b925050819055503373ffffffffffffffffffffffffffffffffffffffff167f66ead48cfe0e1d1aa8bad492e906c348dfcfeecbf3b7b2cdf9b1f3cfa42a2945600360003373ffffffffffffffffffffffffffffffffffffffff1673ffffffffffffffffffffffffffffffffffffffff168152602001908152602001600020546040516111599190612973565b60405180910390a261116a336124ba565b3373ffffffffffffffffffffffffffffffffffffffff16827f15feab5d3eb17171632762cf769709a315dd15f487a556c0dfb8a259c8f186cc60405160405180910390a35050565b60046020528060005260406000206000915090508060000154908060010180546111db90612daf565b80601f016020809104026020016040519081016040528092919081815260200182805461120790612daf565b80156112545780601f1061122957610100808354040283529160200191611254565b820191906000526020600020905b81548152906001019060200180831161123757829003601f168201915b5050505050908060020154908060030160009054906101000a900460ff16905084565b60008054906101000a900473ffffffffffffffffffffffffffffffffffffffff1681565b6060600080600190505b6002548111611367576006600082815260200190815260200160002060060160019054906101000a900460ff1680156113405750600073ffffffffffffffffffffffffffffffffffffffff166006600083815260200190815260200160002060020160009054906101000a900473ffffffffffffffffffffffffffffffffffffffff1673ffffffffffffffffffffffffffffffffffffffff16145b1561135457818061135090612d38565b9250505b808061135f90612d38565b9150506112a5565b5060008167ffffffffffffffff811115611384576113836127b1565b5b6040519080825280602002602001820160405280156113b25781602001602082028036833780820191505090505b509050600080600190505b600254811161149f576006600082815260200190815260200160002060060160019054906101000a900460ff1680156114585750600073ffffffffffffffffffffffffffffffffffffffff166006600083815260200190815260200160002060020160009054906101000a900473ffffffffffffffffffffffffffffffffffffffff1673ffffffffffffffffffffffffffffffffffffffff16145b1561148c5780838381518110611471576114706132ae565b5b602002602001018181525050818061148890612d38565b9250505b808061149790612d38565b9150506113bd565b5081935050505090565b60006006600083815260200190815260200160002090506000816000015411611507576040517f08c379a00000000000000000000000000000000000000000000000000000000081526004016114fe906130aa565b60405180910390fd5b8060060160019054906101000a900460ff16611558576040517f08c379a000000000000000000000000000000000000000000000000000000000815260040161154f90613116565b60405180910390fd5b600073ffffffffffffffffffffffffffffffffffffffff168160020160009054906101000a900473ffffffffffffffffffffffffffffffffffffffff1673ffffffffffffffffffffffffffffffffffffffff16036115eb576040517f08c379a00000000000000000000000000000000000000000000000000000000081526004016115e290613329565b60405180910390fd5b3373ffffffffffffffffffffffffffffffffffffffff168160010160009054906101000a900473ffffffffffffffffffffffffffffffffffffffff1673ffffffffffffffffffffffffffffffffffffffff161461167d576040517f08c379a000000000000000000000000000000000000000000000000000000000815260040161167490613395565b60405180910390fd5b8060060160009054906101000a900460ff16156116cf576040517f08c379a00000000000000000000000000000000000000000000000000000000081526004016116c690613401565b60405180910390fd5b6000612710826005015483600301546116e89190613421565b6116f29190613492565b90506000818360030154611706919061327a565b905080341461174a576040517f08c379a00000000000000000000000000000000000000000000000000000000081526004016117419061350f565b60405180910390fd5b8260020160009054906101000a900473ffffffffffffffffffffffffffffffffffffffff1673ffffffffffffffffffffffffffffffffffffffff166108fc349081150290604051600060405180830381858888f193505050501580156117b4573d6000803e3d6000fd5b5060018360060160006101000a81548160ff02191690831515021790555060008360060160016101000a81548160ff02191690831515021790555060008360040154421115905080156118e6576064600360003373ffffffffffffffffffffffffffffffffffffffff1673ffffffffffffffffffffffffffffffffffffffff1681526020019081526020016000206000828254611851919061327a565b925050819055503373ffffffffffffffffffffffffffffffffffffffff167f66ead48cfe0e1d1aa8bad492e906c348dfcfeecbf3b7b2cdf9b1f3cfa42a2945600360003373ffffffffffffffffffffffffffffffffffffffff1673ffffffffffffffffffffffffffffffffffffffff168152602001908152602001600020546040516118dd9190612973565b60405180910390a25b3373ffffffffffffffffffffffffffffffffffffffff16857fe69d7686a8bc68278b8c5419579f91716b3ef2ac2fac0d8cf80b8011f8f458a460405160405180910390a35050505050565b6000806006600084815260200190815260200160002090506000816000015411611990576040517f08c379a0000000000000000000000000000000000000000000000000000000008152600401611987906130aa565b60405180910390fd5b6000612710826005015483600301546119a99190613421565b6119b39190613492565b90508082600301546119c5919061327a565b92505050919050565b6000600980549050905090565b60015481565b60006006600083815260200190815260200160002090506000816000015411611a3f576040517f08c379a0000000000000000000000000000000000000000000000000000000008152600401611a36906130aa565b60405180910390fd5b8060060160019054906101000a900460ff16611a90576040517f08c379a0000000000000000000000000000000000000000000000000000000008152600401611a8790613116565b60405180910390fd5b600073ffffffffffffffffffffffffffffffffffffffff168160020160009054906101000a900473ffffffffffffffffffffffffffffffffffffffff1673ffffffffffffffffffffffffffffffffffffffff1614611b23576040517f08c379a0000000000000000000000000000000000000000000000000000000008152600401611b1a90613182565b60405180910390fd5b3373ffffffffffffffffffffffffffffffffffffffff168160010160009054906101000a900473ffffffffffffffffffffffffffffffffffffffff1673ffffffffffffffffffffffffffffffffffffffff1614611bb5576040517f08c379a0000000000000000000000000000000000000000000000000000000008152600401611bac90613395565b60405180910390fd5b60008160060160016101000a81548160ff0219169083151502179055505050565b60025481565b60076020528160005260406000208181548110611bf857600080fd5b90600052602060002001600091509150505481565b60086020528160005260406000208181548110611c2957600080fd5b90600052602060002001600091509150505481565b6000806006600084815260200190815260200160002090506000816000015411611c9d576040517f08c379a0000000000000000000000000000000000000000000000000000000008152600401611c94906130aa565b60405180910390fd5b61271081600501548260030154611cb49190613421565b611cbe9190613492565b915050919050565b600154811115611d0b576040517f08c379a0000000000000000000000000000000000000000000000000000000008152600401611d029061357b565b60405180910390fd5b6004600082815260200190815260200160002060030160009054906101000a900460ff16611d6e576040517f08c379a0000000000000000000000000000000000000000000000000000000008152600401611d65906135e7565b60405180910390fd5b600560003373ffffffffffffffffffffffffffffffffffffffff1673ffffffffffffffffffffffffffffffffffffffff168152602001908152602001600020600082815260200190815260200160002060009054906101000a900460ff1615611e0c576040517f08c379a0000000000000000000000000000000000000000000000000000000008152600401611e0390613653565b60405180910390fd5b6004600082815260200190815260200160002060020154600360003373ffffffffffffffffffffffffffffffffffffffff1673ffffffffffffffffffffffffffffffffffffffff1681526020019081526020016000206000828254611e71919061327a565b925050819055506001600560003373ffffffffffffffffffffffffffffffffffffffff1673ffffffffffffffffffffffffffffffffffffffff168152602001908152602001600020600083815260200190815260200160002060006101000a81548160ff0219169083151502179055503373ffffffffffffffffffffffffffffffffffffffff167f66ead48cfe0e1d1aa8bad492e906c348dfcfeecbf3b7b2cdf9b1f3cfa42a2945600360003373ffffffffffffffffffffffffffffffffffffffff1673ffffffffffffffffffffffffffffffffffffffff16815260200190815260200160002054604051611f669190612973565b60405180910390a23373ffffffffffffffffffffffffffffffffffffffff167ff684d89bb0f42287bf32838774e4b7f8a60c11804b3c6d1791fa55f30679264382604051611fb49190612973565b60405180910390a2611fc5336124ba565b50565b60066020528060005260406000206000915090508060000154908060010160009054906101000a900473ffffffffffffffffffffffffffffffffffffffff16908060020160009054906101000a900473ffffffffffffffffffffffffffffffffffffffff16908060030154908060040154908060050154908060060160009054906101000a900460ff16908060060160019054906101000a900460ff16905088565b61271081565b60008084116120b4576040517f08c379a00000000000000000000000000000000000000000000000000000000081526004016120ab906136bf565b60405180910390fd5b600083116120f7576040517f08c379a00000000000000000000000000000000000000000000000000000000081526004016120ee9061372b565b60405180910390fd5b610bb882111561213c576040517f08c379a000000000000000000000000000000000000000000000000000000000815260040161213390613797565b60405180910390fd5b6002600081548092919061214f90612d38565b9190505550600062015180846121659190613421565b42612170919061327a565b905060405180610100016040528060025481526020013373ffffffffffffffffffffffffffffffffffffffff168152602001600073ffffffffffffffffffffffffffffffffffffffff168152602001868152602001828152602001848152602001600015158152602001600115158152506006600060025481526020019081526020016000206000820151816000015560208201518160010160006101000a81548173ffffffffffffffffffffffffffffffffffffffff021916908373ffffffffffffffffffffffffffffffffffffffff16021790555060408201518160020160006101000a81548173ffffffffffffffffffffffffffffffffffffffff021916908373ffffffffffffffffffffffffffffffffffffffff160217905550606082015181600301556080820151816004015560a0820151816005015560c08201518160060160006101000a81548160ff02191690831515021790555060e08201518160060160016101000a81548160ff021916908315150217905550905050600760003373ffffffffffffffffffffffffffffffffffffffff1673ffffffffffffffffffffffffffffffffffffffff1681526020019081526020016000206002549080600181540180825580915050600190039060005260206000200160009091909190915055601e600360003373ffffffffffffffffffffffffffffffffffffffff1673ffffffffffffffffffffffffffffffffffffffff16815260200190815260200160002060008282546123a7919061327a565b925050819055503373ffffffffffffffffffffffffffffffffffffffff167f66ead48cfe0e1d1aa8bad492e906c348dfcfeecbf3b7b2cdf9b1f3cfa42a2945600360003373ffffffffffffffffffffffffffffffffffffffff1673ffffffffffffffffffffffffffffffffffffffff168152602001908152602001600020546040516124339190612973565b60405180910390a2612444336124ba565b600073ffffffffffffffffffffffffffffffffffffffff163373ffffffffffffffffffffffffffffffffffffffff166002547f74b3e97b2a36ecfc8a1c59a0f98862174d98f86769a3420cf68024a054f87b6d886040516124a59190612973565b60405180910390a46002549150509392505050565b600a60008273ffffffffffffffffffffffffffffffffffffffff1673ffffffffffffffffffffffffffffffffffffffff16815260200190815260200160002060009054906101000a900460ff1661260a576009819080600181540180825580915050600190039060005260206000200160009091909190916101000a81548173ffffffffffffffffffffffffffffffffffffffff021916908373ffffffffffffffffffffffffffffffffffffffff1602179055506001600a60008373ffffffffffffffffffffffffffffffffffffffff1673ffffffffffffffffffffffffffffffffffffffff16815260200190815260200160002060006101000a81548160ff0219169083151502179055508073ffffffffffffffffffffffffffffffffffffffff167f19ef9a4877199f89440a26acb26895ec02ed86f2df1aeaa90dc18041b892f71f60405160405180910390a25b50565b6000604051905090565b600080fd5b600080fd5b600073ffffffffffffffffffffffffffffffffffffffff82169050919050565b600061264c82612621565b9050919050565b61265c81612641565b811461266757600080fd5b50565b60008135905061267981612653565b92915050565b60006020828403121561269557612694612617565b5b60006126a38482850161266a565b91505092915050565b600081519050919050565b600082825260208201905092915050565b6000819050602082019050919050565b6000819050919050565b6126eb816126d8565b82525050565b60006126fd83836126e2565b60208301905092915050565b6000602082019050919050565b6000612721826126ac565b61272b81856126b7565b9350612736836126c8565b8060005b8381101561276757815161274e88826126f1565b975061275983612709565b92505060018101905061273a565b5085935050505092915050565b6000602082019050818103600083015261278e8184612716565b905092915050565b600080fd5b600080fd5b6000601f19601f8301169050919050565b7f4e487b7100000000000000000000000000000000000000000000000000000000600052604160045260246000fd5b6127e9826127a0565b810181811067ffffffffffffffff82111715612808576128076127b1565b5b80604052505050565b600061281b61260d565b905061282782826127e0565b919050565b600067ffffffffffffffff821115612847576128466127b1565b5b612850826127a0565b9050602081019050919050565b82818337600083830152505050565b600061287f61287a8461282c565b612811565b90508281526020810184848401111561289b5761289a61279b565b5b6128a684828561285d565b509392505050565b600082601f8301126128c3576128c2612796565b5b81356128d384826020860161286c565b91505092915050565b6128e5816126d8565b81146128f057600080fd5b50565b600081359050612902816128dc565b92915050565b6000806040838503121561291f5761291e612617565b5b600083013567ffffffffffffffff81111561293d5761293c61261c565b5b612949858286016128ae565b925050602061295a858286016128f3565b9150509250929050565b61296d816126d8565b82525050565b60006020820190506129886000830184612964565b92915050565b600080604083850312156129a5576129a4612617565b5b60006129b38582860161266a565b92505060206129c4858286016128f3565b9150509250929050565b60008115159050919050565b6129e3816129ce565b82525050565b60006020820190506129fe60008301846129da565b92915050565b600060208284031215612a1a57612a19612617565b5b6000612a28848285016128f3565b91505092915050565b612a3a81612641565b82525050565b6000602082019050612a556000830184612a31565b92915050565b6000606082019050612a706000830186612964565b612a7d6020830185612964565b612a8a6040830184612964565b949350505050565b600060e082019050612aa7600083018a612a31565b612ab46020830189612a31565b612ac16040830188612964565b612ace6060830187612964565b612adb6080830186612964565b612ae860a08301856129da565b612af560c08301846129da565b98975050505050505050565b600081519050919050565b600082825260208201905092915050565b60005b83811015612b3b578082015181840152602081019050612b20565b60008484015250505050565b6000612b5282612b01565b612b5c8185612b0c565b9350612b6c818560208601612b1d565b612b75816127a0565b840191505092915050565b6000608082019050612b956000830187612964565b8181036020830152612ba78186612b47565b9050612bb66040830185612964565b612bc360608301846129da565b95945050505050565b600061010082019050612be2600083018b612964565b612bef602083018a612a31565b612bfc6040830189612a31565b612c096060830188612964565b612c166080830187612964565b612c2360a0830186612964565b612c3060c08301856129da565b612c3d60e08301846129da565b9998505050505050505050565b600080600060608486031215612c6357612c62612617565b5b6000612c71868287016128f3565b9350506020612c82868287016128f3565b9250506040612c93868287016128f3565b9150509250925092565b7f4e6f7420617574686f72697a6564000000000000000000000000000000000000600082015250565b6000612cd3600e83612b0c565b9150612cde82612c9d565b602082019050919050565b60006020820190508181036000830152612d0281612cc6565b9050919050565b7f4e487b7100000000000000000000000000000000000000000000000000000000600052601160045260246000fd5b6000612d43826126d8565b91507fffffffffffffffffffffffffffffffffffffffffffffffffffffffffffffffff8203612d7557612d74612d09565b5b600182019050919050565b7f4e487b7100000000000000000000000000000000000000000000000000000000600052602260045260246000fd5b60006002820490506001821680612dc757607f821691505b602082108103612dda57612dd9612d80565b5b50919050565b60008190508160005260206000209050919050565b60006020601f8301049050919050565b600082821b905092915050565b600060088302612e427fffffffffffffffffffffffffffffffffffffffffffffffffffffffffffffffff82612e05565b612e4c8683612e05565b95508019841693508086168417925050509392505050565b6000819050919050565b6000612e89612e84612e7f846126d8565b612e64565b6126d8565b9050919050565b6000819050919050565b612ea383612e6e565b612eb7612eaf82612e90565b848454612e12565b825550505050565b600090565b612ecc612ebf565b612ed7818484612e9a565b505050565b5b81811015612efb57612ef0600082612ec4565b600181019050612edd565b5050565b601f821115612f4057612f1181612de0565b612f1a84612df5565b81016020851015612f29578190505b612f3d612f3585612df5565b830182612edc565b50505b505050565b600082821c905092915050565b6000612f6360001984600802612f45565b1980831691505092915050565b6000612f7c8383612f52565b9150826002028217905092915050565b612f9582612b01565b67ffffffffffffffff811115612fae57612fad6127b1565b5b612fb88254612daf565b612fc3828285612eff565b600060209050601f831160018114612ff65760008415612fe4578287015190505b612fee8582612f70565b865550613056565b601f19841661300486612de0565b60005b8281101561302c57848901518255600182019150602085019450602081019050613007565b868310156130495784890151613045601f891682612f52565b8355505b6001600288020188555050505b505050505050565b7f4c6f616e20646f6573206e6f7420657869737400000000000000000000000000600082015250565b6000613094601383612b0c565b915061309f8261305e565b602082019050919050565b600060208201905081810360008301526130c381613087565b9050919050565b7f4c6f616e206973206e6f74206163746976650000000000000000000000000000600082015250565b6000613100601283612b0c565b915061310b826130ca565b602082019050919050565b6000602082019050818103600083015261312f816130f3565b9050919050565b7f4c6f616e20616c72656164792066756e64656400000000000000000000000000600082015250565b600061316c601383612b0c565b915061317782613136565b602082019050919050565b6000602082019050818103600083015261319b8161315f565b9050919050565b7f43616e6e6f742066756e6420796f7572206f776e206c6f616e00000000000000600082015250565b60006131d8601983612b0c565b91506131e3826131a2565b602082019050919050565b60006020820190508181036000830152613207816131cb565b9050919050565b7f496e636f727265637420616d6f756e7400000000000000000000000000000000600082015250565b6000613244601083612b0c565b915061324f8261320e565b602082019050919050565b6000602082019050818103600083015261327381613237565b9050919050565b6000613285826126d8565b9150613290836126d8565b92508282019050808211156132a8576132a7612d09565b5b92915050565b7f4e487b7100000000000000000000000000000000000000000000000000000000600052603260045260246000fd5b7f4c6f616e206e6f742066756e6465642079657400000000000000000000000000600082015250565b6000613313601383612b0c565b915061331e826132dd565b602082019050919050565b6000602082019050818103600083015261334281613306565b9050919050565b7f4e6f742074686520626f72726f77657200000000000000000000000000000000600082015250565b600061337f601083612b0c565b915061338a82613349565b602082019050919050565b600060208201905081810360008301526133ae81613372565b9050919050565b7f4c6f616e20616c72656164792072657061696400000000000000000000000000600082015250565b60006133eb601383612b0c565b91506133f6826133b5565b602082019050919050565b6000602082019050818103600083015261341a816133de565b9050919050565b600061342c826126d8565b9150613437836126d8565b9250828202613445816126d8565b9150828204841483151761345c5761345b612d09565b5b5092915050565b7f4e487b7100000000000000000000000000000000000000000000000000000000600052601260045260246000fd5b600061349d826126d8565b91506134a8836126d8565b9250826134b8576134b7613463565b5b828204905092915050565b7f496e636f72726563742072657061796d656e7420616d6f756e74000000000000600082015250565b60006134f9601a83612b0c565b9150613504826134c3565b602082019050919050565b60006020820190508181036000830152613528816134ec565b9050919050565b7f5461736b20646f6573206e6f7420657869737400000000000000000000000000600082015250565b6000613565601383612b0c565b91506135708261352f565b602082019050919050565b6000602082019050818103600083015261359481613558565b9050919050565b7f5461736b20696e61637469766500000000000000000000000000000000000000600082015250565b60006135d1600d83612b0c565b91506135dc8261359b565b602082019050919050565b60006020820190508181036000830152613600816135c4565b9050919050565b7f5461736b20616c726561647920636f6d706c6574656400000000000000000000600082015250565b600061363d601683612b0c565b915061364882613607565b602082019050919050565b6000602082019050818103600083015261366c81613630565b9050919050565b7f416d6f756e74206d7573742062652067726561746572207468616e2030000000600082015250565b60006136a9601d83612b0c565b91506136b482613673565b602082019050919050565b600060208201905081810360008301526136d88161369c565b9050919050565b7f4475726174696f6e206d7573742062652067726561746572207468616e203000600082015250565b6000613715601f83612b0c565b9150613720826136df565b602082019050919050565b6000602082019050818103600083015261374481613708565b9050919050565b7f496e746572657374207261746520746f6f206869676800000000000000000000600082015250565b6000613781601683612b0c565b915061378c8261374b565b602082019050919050565b600060208201905081810360008301526137b081613774565b905091905056fea2646970667358221220086db4a7b44b52ac2a03959a0896a950a1eaba3744117b1aa60bfb3afe6b033164736f6c634300081c0033436f6d706c6574652033207472616e73616374696f6e732074686973206d6f6e7468",
  "linkReferences": {},
  "deployedLinkReferences": {}
}